{
  "contractName": "Elections",
  "abi": [
    {
      "inputs": [
        {
          "internalType": "uint256",
          "name": "",
          "type": "uint256"
        }
      ],
      "name": "idToElection",
      "outputs": [
        {
          "internalType": "address",
          "name": "creator",
          "type": "address"
        },
        {
          "internalType": "uint256",
          "name": "electionVoteCount",
          "type": "uint256"
        }
      ],
      "stateMutability": "view",
      "type": "function"
    },
    {
      "inputs": [
        {
          "internalType": "uint256",
          "name": "",
          "type": "uint256"
        }
      ],
      "name": "votes",
      "outputs": [
        {
          "internalType": "uint256",
          "name": "electionID",
          "type": "uint256"
        },
        {
          "internalType": "bool",
          "name": "value",
          "type": "bool"
        },
        {
          "internalType": "address",
          "name": "user",
          "type": "address"
        }
      ],
      "stateMutability": "view",
      "type": "function"
    },
    {
      "inputs": [],
      "name": "createVoting",
      "outputs": [],
      "stateMutability": "nonpayable",
      "type": "function"
    },
    {
      "inputs": [
        {
          "internalType": "uint256",
          "name": "_electionID",
          "type": "uint256"
        },
        {
          "internalType": "bool",
          "name": "_voteValue",
          "type": "bool"
        }
      ],
      "name": "vote",
      "outputs": [],
      "stateMutability": "nonpayable",
      "type": "function"
    },
    {
      "inputs": [
        {
          "internalType": "uint256",
          "name": "_electionID",
          "type": "uint256"
        }
      ],
      "name": "getVotes",
      "outputs": [
        {
          "components": [
            {
              "internalType": "uint256",
              "name": "electionID",
              "type": "uint256"
            },
            {
              "internalType": "bool",
              "name": "value",
              "type": "bool"
            },
            {
              "internalType": "address",
              "name": "user",
              "type": "address"
            }
          ],
          "internalType": "struct Elections.Vote[]",
          "name": "",
          "type": "tuple[]"
        }
      ],
      "stateMutability": "view",
      "type": "function"
    }
  ],
  "bytecode": "0x608060405260008055600060015534801561001957600080fd5b506107fa806100296000396000f3fe608060405234801561001057600080fd5b50600436106100575760003560e01c80633c5663df1461005c57806356596a39146100665780635df8133014610097578063c9d27afe146100c9578063ff981099146100e5575b600080fd5b610064610115565b005b610080600480360381019061007b919061051c565b6101bc565b60405161008e929190610693565b60405180910390f35b6100b160048036038101906100ac919061051c565b610200565b6040516100c0939291906106de565b60405180910390f35b6100e360048036038101906100de9190610545565b610257565b005b6100ff60048036038101906100fa919061051c565b61034f565b60405161010c91906106bc565b60405180910390f35b600080815480929190600101919050555060405180604001604052803373ffffffffffffffffffffffffffffffffffffffff1681526020016000815250600360008054815260200190815260200160002060008201518160000160006101000a81548173ffffffffffffffffffffffffffffffffffffffff021916908373ffffffffffffffffffffffffffffffffffffffff16021790555060208201518160010155905050565b60036020528060005260406000206000915090508060000160009054906101000a900473ffffffffffffffffffffffffffffffffffffffff16908060010154905082565b60026020528060005260406000206000915090508060000154908060010160009054906101000a900460ff16908060010160019054906101000a900473ffffffffffffffffffffffffffffffffffffffff16905083565b6001600081548092919060010191905055506003600083815260200190815260200160002060010160008154809291906001019190505550604051806060016040528083815260200182151581526020013373ffffffffffffffffffffffffffffffffffffffff168152506002600060015481526020019081526020016000206000820151816000015560208201518160010160006101000a81548160ff02191690831515021790555060408201518160010160016101000a81548173ffffffffffffffffffffffffffffffffffffffff021916908373ffffffffffffffffffffffffffffffffffffffff1602179055509050505050565b606080600360008481526020019081526020016000206001015467ffffffffffffffff8111801561037f57600080fd5b506040519080825280602002602001820160405280156103b957816020015b6103a66104b9565b81526020019060019003908161039e5790505b5090506000805b6001548110156104ae5784600260008381526020019081526020016000206000015414156104a15760026000828152602001908152602001600020604051806060016040529081600082015481526020016001820160009054906101000a900460ff161515151581526020016001820160019054906101000a900473ffffffffffffffffffffffffffffffffffffffff1673ffffffffffffffffffffffffffffffffffffffff1673ffffffffffffffffffffffffffffffffffffffff168152505083838151811061048d57fe5b602002602001018190525081806001019250505b80806001019150506103c0565b508192505050919050565b604051806060016040528060008152602001600015158152602001600073ffffffffffffffffffffffffffffffffffffffff1681525090565b60008135905061050181610796565b92915050565b600081359050610516816107ad565b92915050565b60006020828403121561052e57600080fd5b600061053c84828501610507565b91505092915050565b6000806040838503121561055857600080fd5b600061056685828601610507565b9250506020610577858286016104f2565b9150509250929050565b600061058d8383610633565b60608301905092915050565b6105a28161074e565b82525050565b6105b18161074e565b82525050565b60006105c282610725565b6105cc818561073d565b93506105d783610715565b8060005b838110156106085781516105ef8882610581565b97506105fa83610730565b9250506001810190506105db565b5085935050505092915050565b61061e81610760565b82525050565b61062d81610760565b82525050565b6060820160008201516106496000850182610675565b50602082015161065c6020850182610615565b50604082015161066f6040850182610599565b50505050565b61067e8161078c565b82525050565b61068d8161078c565b82525050565b60006040820190506106a860008301856105a8565b6106b56020830184610684565b9392505050565b600060208201905081810360008301526106d681846105b7565b905092915050565b60006060820190506106f36000830186610684565b6107006020830185610624565b61070d60408301846105a8565b949350505050565b6000819050602082019050919050565b600081519050919050565b6000602082019050919050565b600082825260208201905092915050565b60006107598261076c565b9050919050565b60008115159050919050565b600073ffffffffffffffffffffffffffffffffffffffff82169050919050565b6000819050919050565b61079f81610760565b81146107aa57600080fd5b50565b6107b68161078c565b81146107c157600080fd5b5056fea2646970667358221220c2ecafd77e4b0228a1e456c2f9875f81a279722036a1163bfd65b97fe8c0f6a864736f6c63430007000033",
  "immutableReferences": {},
  "source": "pragma solidity >=0.7.0;\r\npragma experimental ABIEncoderV2;\r\n\r\ncontract Elections {\r\n\r\n    uint electionCounter = 0;\r\n    uint voteCounter = 0;\r\n\r\n    struct Vote {\r\n        uint electionID;\r\n        bool value;\r\n        address user;\r\n    }\r\n\r\n    struct Election {\r\n        address creator;\r\n        uint electionVoteCount;\r\n    }\r\n\r\n    mapping (uint => Vote) public votes;\r\n\r\n    mapping (uint  => Election) public idToElection;\r\n\r\n\r\n\r\n    function createVoting () public {\r\n        electionCounter++;\r\n        idToElection[electionCounter] = Election(msg.sender,0);\r\n    }\r\n\r\n    function vote (uint _electionID, bool _voteValue) public {\r\n        voteCounter++;\r\n        idToElection[_electionID].electionVoteCount++;\r\n        votes[voteCounter]= (Vote(_electionID,_voteValue,msg.sender));\r\n    }\r\n\r\n    function getVotes (uint _electionID) public view returns (Vote[] memory) {\r\n        Vote[] memory electionVotes = new Vote[](idToElection[_electionID].electionVoteCount);\r\n        uint counter = 0;\r\n        for (uint i = 0; i < voteCounter; i++) {\r\n            if (votes[i].electionID == _electionID) {\r\n                electionVotes[counter] = votes[i];\r\n                counter++;\r\n            }\r\n        }\r\n        return electionVotes;\r\n    }\r\n\r\n}\r\n",
  "sourcePath": "C:\\Users\\DOMEN\\WebstormProjects\\blockchain_voting\\blockchain\\contracts\\Election.sol",
  "compiler": {
    "name": "solc",
    "version": "0.7.0+commit.9e61f92b.Emscripten.clang"
  },
  "schemaVersion": "3.4.3",
  "updatedAt": "2021-09-11T20:29:36.145Z",
  "devdoc": {
    "kind": "dev",
    "methods": {},
    "version": 1
  },
  "userdoc": {
    "kind": "user",
    "methods": {},
    "version": 1
  }
}