{
  "contractName": "Elections",
  "abi": [
    {
      "inputs": [
        {
          "internalType": "uint256",
          "name": "",
          "type": "uint256"
        }
      ],
      "name": "idToElection",
      "outputs": [
        {
          "internalType": "string",
          "name": "name",
          "type": "string"
        },
        {
          "internalType": "address",
          "name": "creator",
          "type": "address"
        },
        {
          "internalType": "uint256",
          "name": "electionVoteCount",
          "type": "uint256"
        },
        {
          "internalType": "uint256",
          "name": "expirationTime",
          "type": "uint256"
        },
        {
          "internalType": "string",
          "name": "electionType",
          "type": "string"
        }
      ],
      "stateMutability": "view",
      "type": "function"
    },
    {
      "inputs": [
        {
          "internalType": "uint256",
          "name": "",
          "type": "uint256"
        }
      ],
      "name": "votes",
      "outputs": [
        {
          "internalType": "uint256",
          "name": "electionID",
          "type": "uint256"
        },
        {
          "internalType": "string",
          "name": "value",
          "type": "string"
        },
        {
          "internalType": "address",
          "name": "user",
          "type": "address"
        }
      ],
      "stateMutability": "view",
      "type": "function"
    },
    {
      "inputs": [
        {
          "internalType": "string",
          "name": "_name",
          "type": "string"
        },
        {
          "internalType": "string",
          "name": "_type",
          "type": "string"
        },
        {
          "internalType": "uint256",
          "name": "_expirationDate",
          "type": "uint256"
        }
      ],
      "name": "createVoting",
      "outputs": [],
      "stateMutability": "nonpayable",
      "type": "function"
    },
    {
      "inputs": [
        {
          "internalType": "uint256",
          "name": "_electionID",
          "type": "uint256"
        },
        {
          "internalType": "string",
          "name": "_voteValue",
          "type": "string"
        }
      ],
      "name": "vote",
      "outputs": [],
      "stateMutability": "nonpayable",
      "type": "function"
    },
    {
      "inputs": [
        {
          "internalType": "uint256",
          "name": "_electionID",
          "type": "uint256"
        }
      ],
      "name": "getVotes",
      "outputs": [
        {
          "components": [
            {
              "internalType": "uint256",
              "name": "electionID",
              "type": "uint256"
            },
            {
              "internalType": "string",
              "name": "value",
              "type": "string"
            },
            {
              "internalType": "address",
              "name": "user",
              "type": "address"
            }
          ],
          "internalType": "struct Elections.Vote[]",
          "name": "",
          "type": "tuple[]"
        }
      ],
      "stateMutability": "view",
      "type": "function"
    }
  ],
  "bytecode": "0x608060405260008055600060015534801561001957600080fd5b50610db7806100296000396000f3fe608060405234801561001057600080fd5b50600436106100575760003560e01c8063241084751461005c57806356596a39146100785780635df81330146100ac5780638039f028146100de578063ff981099146100fa575b600080fd5b61007660048036038101906100719190610980565b61012a565b005b610092600480360381019061008d9190610957565b610240565b6040516100a3959493929190610b7d565b60405180910390f35b6100c660048036038101906100c19190610957565b6103c6565b6040516100d593929190610bde565b60405180910390f35b6100f860048036038101906100f391906108d8565b6104a8565b005b610114600480360381019061010f9190610957565b6105aa565b6040516101219190610b5b565b60405180910390f35b600360008381526020019081526020016000206003015442111561014d57600080fd5b600160008154809291906001019190505550600360008381526020019081526020016000206002016000815480929190600101919050555060405180606001604052808381526020018281526020013373ffffffffffffffffffffffffffffffffffffffff168152506002600060015481526020019081526020016000206000820151816000015560208201518160010190805190602001906101f192919061079b565b5060408201518160020160006101000a81548173ffffffffffffffffffffffffffffffffffffffff021916908373ffffffffffffffffffffffffffffffffffffffff1602179055509050505050565b6003602052806000526040600020600091509050806000018054600181600116156101000203166002900480601f0160208091040260200160405190810160405280929190818152602001828054600181600116156101000203166002900480156102ec5780601f106102c1576101008083540402835291602001916102ec565b820191906000526020600020905b8154815290600101906020018083116102cf57829003601f168201915b5050505050908060010160009054906101000a900473ffffffffffffffffffffffffffffffffffffffff1690806002015490806003015490806004018054600181600116156101000203166002900480601f0160208091040260200160405190810160405280929190818152602001828054600181600116156101000203166002900480156103bc5780601f10610391576101008083540402835291602001916103bc565b820191906000526020600020905b81548152906001019060200180831161039f57829003601f168201915b5050505050905085565b6002602052806000526040600020600091509050806000015490806001018054600181600116156101000203166002900480601f0160208091040260200160405190810160405280929190818152602001828054600181600116156101000203166002900480156104785780601f1061044d57610100808354040283529160200191610478565b820191906000526020600020905b81548152906001019060200180831161045b57829003601f168201915b5050505050908060020160009054906101000a900473ffffffffffffffffffffffffffffffffffffffff16905083565b60008081548092919060010191905055506040518060a001604052808481526020013373ffffffffffffffffffffffffffffffffffffffff168152602001600081526020018242018152602001838152506003600080548152602001908152602001600020600082015181600001908051906020019061052992919061079b565b5060208201518160010160006101000a81548173ffffffffffffffffffffffffffffffffffffffff021916908373ffffffffffffffffffffffffffffffffffffffff160217905550604082015181600201556060820151816003015560808201518160040190805190602001906105a192919061079b565b50905050505050565b606080600360008481526020019081526020016000206002015467ffffffffffffffff811180156105da57600080fd5b5060405190808252806020026020018201604052801561061457816020015b61060161081b565b8152602001906001900390816105f95790505b5090506000805b600154811015610790578460026000838152602001908152602001600020600001541415610783576002600082815260200190815260200160002060405180606001604052908160008201548152602001600182018054600181600116156101000203166002900480601f0160208091040260200160405190810160405280929190818152602001828054600181600116156101000203166002900480156107045780601f106106d957610100808354040283529160200191610704565b820191906000526020600020905b8154815290600101906020018083116106e757829003601f168201915b505050505081526020016002820160009054906101000a900473ffffffffffffffffffffffffffffffffffffffff1673ffffffffffffffffffffffffffffffffffffffff1673ffffffffffffffffffffffffffffffffffffffff168152505083838151811061076f57fe5b602002602001018190525081806001019250505b808060010191505061061b565b508192505050919050565b828054600181600116156101000203166002900490600052602060002090601f016020900481019282601f106107dc57805160ff191683800117855561080a565b8280016001018555821561080a579182015b828111156108095782518255916020019190600101906107ee565b5b5090506108179190610852565b5090565b60405180606001604052806000815260200160608152602001600073ffffffffffffffffffffffffffffffffffffffff1681525090565b5b8082111561086b576000816000905550600101610853565b5090565b600082601f83011261088057600080fd5b813561089361088e82610c49565b610c1c565b915080825260208301602083018583830111156108af57600080fd5b6108ba838284610d17565b50505092915050565b6000813590506108d281610d6a565b92915050565b6000806000606084860312156108ed57600080fd5b600084013567ffffffffffffffff81111561090757600080fd5b6109138682870161086f565b935050602084013567ffffffffffffffff81111561093057600080fd5b61093c8682870161086f565b925050604061094d868287016108c3565b9150509250925092565b60006020828403121561096957600080fd5b6000610977848285016108c3565b91505092915050565b6000806040838503121561099357600080fd5b60006109a1858286016108c3565b925050602083013567ffffffffffffffff8111156109be57600080fd5b6109ca8582860161086f565b9150509250929050565b60006109e08383610aed565b905092915050565b6109f181610cdb565b82525050565b610a0081610cdb565b82525050565b6000610a1182610c85565b610a1b8185610ca8565b935083602082028501610a2d85610c75565b8060005b85811015610a695784840389528151610a4a85826109d4565b9450610a5583610c9b565b925060208a01995050600181019050610a31565b50829750879550505050505092915050565b6000610a8682610c90565b610a908185610cb9565b9350610aa0818560208601610d26565b610aa981610d59565b840191505092915050565b6000610abf82610c90565b610ac98185610cca565b9350610ad9818560208601610d26565b610ae281610d59565b840191505092915050565b6000606083016000830151610b056000860182610b3d565b5060208301518482036020860152610b1d8282610a7b565b9150506040830151610b3260408601826109e8565b508091505092915050565b610b4681610d0d565b82525050565b610b5581610d0d565b82525050565b60006020820190508181036000830152610b758184610a06565b905092915050565b600060a0820190508181036000830152610b978188610ab4565b9050610ba660208301876109f7565b610bb36040830186610b4c565b610bc06060830185610b4c565b8181036080830152610bd28184610ab4565b90509695505050505050565b6000606082019050610bf36000830186610b4c565b8181036020830152610c058185610ab4565b9050610c1460408301846109f7565b949350505050565b6000604051905081810181811067ffffffffffffffff82111715610c3f57600080fd5b8060405250919050565b600067ffffffffffffffff821115610c6057600080fd5b601f19601f8301169050602081019050919050565b6000819050602082019050919050565b600081519050919050565b600081519050919050565b6000602082019050919050565b600082825260208201905092915050565b600082825260208201905092915050565b600082825260208201905092915050565b6000610ce682610ced565b9050919050565b600073ffffffffffffffffffffffffffffffffffffffff82169050919050565b6000819050919050565b82818337600083830152505050565b60005b83811015610d44578082015181840152602081019050610d29565b83811115610d53576000848401525b50505050565b6000601f19601f8301169050919050565b610d7381610d0d565b8114610d7e57600080fd5b5056fea26469706673582212201dc4a2145ff12d30c3042cd11ea0c0648319f656f3119c95f8dc862c5d2574fa64736f6c63430007000033",
  "immutableReferences": {},
  "source": "pragma solidity >=0.7.0;\r\npragma experimental ABIEncoderV2;\r\n\r\ncontract Elections {\r\n\r\n    // add expiration date\r\n    // only vote once per election\r\n    // delete election ?\r\n\r\n    uint electionCounter = 0;\r\n    uint voteCounter = 0;\r\n\r\n\r\n    struct Vote {\r\n        uint electionID;\r\n        string value;\r\n        address user;\r\n    }\r\n\r\n    struct Election {\r\n        string name;\r\n        address creator;\r\n        uint electionVoteCount;\r\n        // expiration date\r\n        uint expirationTime;\r\n        //type of election\r\n        string electionType;\r\n    }\r\n\r\n    mapping (uint => Vote) public votes;\r\n\r\n    mapping (uint  => Election) public idToElection;\r\n\r\n\r\n\r\n    function createVoting (string memory _name, string memory _type, uint _expirationDate) public {\r\n        electionCounter++;\r\n        idToElection[electionCounter] = Election(_name,msg.sender,0,(block.timestamp + _expirationDate), _type);\r\n    }\r\n\r\n    function vote (uint _electionID, string memory _voteValue) public {\r\n        require(block.timestamp <= idToElection[_electionID].expirationTime);\r\n        voteCounter++;\r\n        idToElection[_electionID].electionVoteCount++;\r\n        votes[voteCounter]= (Vote(_electionID,_voteValue,msg.sender));\r\n    }\r\n\r\n    function getVotes (uint _electionID) public view returns (Vote[] memory) {\r\n        Vote[] memory electionVotes = new Vote[](idToElection[_electionID].electionVoteCount);\r\n        uint counter = 0;\r\n        for (uint i = 0; i < voteCounter; i++) {\r\n            if (votes[i].electionID == _electionID) {\r\n                electionVotes[counter] = votes[i];\r\n                counter++;\r\n            }\r\n        }\r\n        return electionVotes;\r\n    }\r\n\r\n}\r\n",
  "sourcePath": "C:\\Users\\DOMEN\\WebstormProjects\\voting\\blockchain\\contracts\\Election.sol",
  "compiler": {
    "name": "solc",
    "version": "0.7.0+commit.9e61f92b.Emscripten.clang"
  },
  "schemaVersion": "3.4.3",
  "updatedAt": "2021-09-19T21:00:45.783Z",
  "devdoc": {
    "kind": "dev",
    "methods": {},
    "version": 1
  },
  "userdoc": {
    "kind": "user",
    "methods": {},
    "version": 1
  }
}