{
  "contractName": "Election",
  "abi": [
    {
      "constant": true,
      "inputs": [
        {
          "internalType": "uint256",
          "name": "",
          "type": "uint256"
        }
      ],
      "name": "idToElection",
      "outputs": [
        {
          "internalType": "address",
          "name": "creator",
          "type": "address"
        }
      ],
      "payable": false,
      "stateMutability": "view",
      "type": "function"
    },
    {
      "constant": false,
      "inputs": [],
      "name": "createVoting",
      "outputs": [],
      "payable": false,
      "stateMutability": "nonpayable",
      "type": "function"
    },
    {
      "constant": false,
      "inputs": [
        {
          "internalType": "uint256",
          "name": "_electionID",
          "type": "uint256"
        },
        {
          "internalType": "bool",
          "name": "_voteValue",
          "type": "bool"
        }
      ],
      "name": "vote",
      "outputs": [],
      "payable": false,
      "stateMutability": "nonpayable",
      "type": "function"
    }
  ],
  "bytecode": "0x60806040526000805534801561001457600080fd5b506102d9806100246000396000f3fe608060405234801561001057600080fd5b50600436106100415760003560e01c80633c5663df1461004657806356596a3914610050578063c9d27afe146100be575b600080fd5b61004e6100f8565b005b61007c6004803603602081101561006657600080fd5b810190808035906020019092919050505061018e565b604051808273ffffffffffffffffffffffffffffffffffffffff1673ffffffffffffffffffffffffffffffffffffffff16815260200191505060405180910390f35b6100f6600480360360408110156100d457600080fd5b81019080803590602001909291908035151590602001909291905050506101cc565b005b600080815480929190600101919050555060405180602001604052803373ffffffffffffffffffffffffffffffffffffffff16815250600260008054815260200190815260200160002060008201518160000160006101000a81548173ffffffffffffffffffffffffffffffffffffffff021916908373ffffffffffffffffffffffffffffffffffffffff160217905550905050565b60026020528060005260406000206000915090508060000160009054906101000a900473ffffffffffffffffffffffffffffffffffffffff16905081565b6001604051806060016040528084815260200183151581526020013373ffffffffffffffffffffffffffffffffffffffff16815250908060018154018082558091505090600182039060005260206000209060020201600090919290919091506000820151816000015560208201518160010160006101000a81548160ff02191690831515021790555060408201518160010160016101000a81548173ffffffffffffffffffffffffffffffffffffffff021916908373ffffffffffffffffffffffffffffffffffffffff160217905550505050505056fea265627a7a72315820e50ac5033ec3a23e8f0ed30b191a1712cf0694d51c5c1235e83384a82006c5c764736f6c63430005100032",
  "source": "pragma solidity ^0.5.0;\r\n\r\ncontract Election {\r\n\r\n    uint electionCounter = 0;\r\n\r\n    struct Vote {\r\n        uint electionID;\r\n        bool value;\r\n        address user;\r\n    }\r\n\r\n    struct Election {\r\n        address creator;\r\n    }\r\n\r\n    Vote [] votes;\r\n\r\n\r\n    mapping (uint  => Election) public idToElection;\r\n\r\n\r\n    function createVoting () public {\r\n        electionCounter++;\r\n        idToElection[electionCounter] = Election(msg.sender);\r\n    }\r\n\r\n    function vote (uint _electionID, bool _voteValue) public {\r\n        votes.push(Vote(_electionID,_voteValue,msg.sender));\r\n    }\r\n\r\n\r\n}\r\n",
  "sourcePath": "C:\\Users\\DOMEN\\WebstormProjects\\blockchain_voting\\blockchain\\contracts\\Election.sol",
  "compiler": {
    "name": "solc",
    "version": "0.5.16+commit.9c3226ce.Emscripten.clang"
  },
  "schemaVersion": "3.4.3",
  "updatedAt": "2021-09-11T19:41:47.635Z",
  "devdoc": {
    "methods": {}
  },
  "userdoc": {
    "methods": {}
  }
}